{
  "address": "0x5FbDB2315678afecb367f032d93F642f64180aa3",
  "abi": [
    {
      "inputs": [],
      "stateMutability": "nonpayable",
      "type": "constructor"
    },
    {
      "inputs": [],
      "name": "FundMe__NotOwner",
      "type": "error"
    },
    {
      "stateMutability": "payable",
      "type": "fallback"
    },
    {
      "inputs": [],
      "name": "fund",
      "outputs": [],
      "stateMutability": "payable",
      "type": "function"
    },
    {
      "inputs": [
        {
          "internalType": "address",
          "name": "funder",
          "type": "address"
        }
      ],
      "name": "getAddress2Amt",
      "outputs": [
        {
          "internalType": "uint256",
          "name": "",
          "type": "uint256"
        }
      ],
      "stateMutability": "view",
      "type": "function"
    },
    {
      "inputs": [],
      "name": "getBalance",
      "outputs": [
        {
          "internalType": "uint256",
          "name": "",
          "type": "uint256"
        }
      ],
      "stateMutability": "view",
      "type": "function"
    },
    {
      "inputs": [
        {
          "internalType": "uint256",
          "name": "index",
          "type": "uint256"
        }
      ],
      "name": "getFunder",
      "outputs": [
        {
          "internalType": "address",
          "name": "",
          "type": "address"
        }
      ],
      "stateMutability": "view",
      "type": "function"
    },
    {
      "inputs": [],
      "name": "getOwner",
      "outputs": [
        {
          "internalType": "address",
          "name": "",
          "type": "address"
        }
      ],
      "stateMutability": "view",
      "type": "function"
    },
    {
      "inputs": [],
      "name": "getTotalAmount",
      "outputs": [
        {
          "internalType": "uint256",
          "name": "",
          "type": "uint256"
        }
      ],
      "stateMutability": "view",
      "type": "function"
    },
    {
      "inputs": [],
      "name": "withdraw",
      "outputs": [],
      "stateMutability": "nonpayable",
      "type": "function"
    },
    {
      "stateMutability": "payable",
      "type": "receive"
    }
  ],
  "transactionHash": "0x9e51994941154b9949aa277f68a775e09a12f409de1be3419d3653ddf1d665b0",
  "args": [],
  "numDeployments": 1,
  "solcInputHash": "63a2a18b34c76840360974a57b266585",
  "bytecode": "0x60a060405234801561001057600080fd5b503373ffffffffffffffffffffffffffffffffffffffff1660808173ffffffffffffffffffffffffffffffffffffffff1660601b81525050600060028190555060805160601c61086e6100756000396000818161031a015261045a015261086e6000f3fe6080604052600436106100745760003560e01c8063893d20e81161004e578063893d20e8146100fa578063b60d428814610125578063d7b4750c1461012f578063dad9478d1461016c57610083565b806312065fe01461008d5780633ccfd60b146100b857806365ac4341146100cf57610083565b36610083576100816101a9565b005b61008b6101a9565b005b34801561009957600080fd5b506100a2610310565b6040516100af9190610527565b60405180910390f35b3480156100c457600080fd5b506100cd610318565b005b3480156100db57600080fd5b506100e461044c565b6040516100f19190610527565b60405180910390f35b34801561010657600080fd5b5061010f610456565b60405161011c9190610583565b60405180910390f35b61012d6101a9565b005b34801561013b57600080fd5b50610156600480360381019061015191906105cf565b61047e565b6040516101639190610583565b60405180910390f35b34801561017857600080fd5b50610193600480360381019061018e9190610628565b6104c5565b6040516101a09190610527565b60405180910390f35b662386f26fc100003410156101f3576040517f08c379a00000000000000000000000000000000000000000000000000000000081526004016101ea906106b2565b60405180910390fd5b6000600160003373ffffffffffffffffffffffffffffffffffffffff1673ffffffffffffffffffffffffffffffffffffffff16815260200190815260200160002054141561029f576000339080600181540180825580915050600190039060005260206000200160009091909190916101000a81548173ffffffffffffffffffffffffffffffffffffffff021916908373ffffffffffffffffffffffffffffffffffffffff1602179055505b34600160003373ffffffffffffffffffffffffffffffffffffffff1673ffffffffffffffffffffffffffffffffffffffff16815260200190815260200160002060008282546102ee9190610701565b9250508190555034600260008282546103079190610701565b92505081905550565b600047905090565b7f000000000000000000000000000000000000000000000000000000000000000073ffffffffffffffffffffffffffffffffffffffff163373ffffffffffffffffffffffffffffffffffffffff161461039d576040517f579610db00000000000000000000000000000000000000000000000000000000815260040160405180910390fd5b60003373ffffffffffffffffffffffffffffffffffffffff16476040516103c390610788565b60006040518083038185875af1925050503d8060008114610400576040519150601f19603f3d011682016040523d82523d6000602084013e610405565b606091505b5050905080610449576040517f08c379a0000000000000000000000000000000000000000000000000000000008152600401610440906107e9565b60405180910390fd5b50565b6000600254905090565b60007f0000000000000000000000000000000000000000000000000000000000000000905090565b600080828154811061049357610492610809565b5b9060005260206000200160009054906101000a900473ffffffffffffffffffffffffffffffffffffffff169050919050565b6000600160008373ffffffffffffffffffffffffffffffffffffffff1673ffffffffffffffffffffffffffffffffffffffff168152602001908152602001600020549050919050565b6000819050919050565b6105218161050e565b82525050565b600060208201905061053c6000830184610518565b92915050565b600073ffffffffffffffffffffffffffffffffffffffff82169050919050565b600061056d82610542565b9050919050565b61057d81610562565b82525050565b60006020820190506105986000830184610574565b92915050565b600080fd5b6105ac8161050e565b81146105b757600080fd5b50565b6000813590506105c9816105a3565b92915050565b6000602082840312156105e5576105e461059e565b5b60006105f3848285016105ba565b91505092915050565b61060581610562565b811461061057600080fd5b50565b600081359050610622816105fc565b92915050565b60006020828403121561063e5761063d61059e565b5b600061064c84828501610613565b91505092915050565b600082825260208201905092915050565b7f4e6f7420456e6f75676820455448000000000000000000000000000000000000600082015250565b600061069c600e83610655565b91506106a782610666565b602082019050919050565b600060208201905081810360008301526106cb8161068f565b9050919050565b7f4e487b7100000000000000000000000000000000000000000000000000000000600052601160045260246000fd5b600061070c8261050e565b91506107178361050e565b9250827fffffffffffffffffffffffffffffffffffffffffffffffffffffffffffffffff0382111561074c5761074b6106d2565b5b828201905092915050565b600081905092915050565b50565b6000610772600083610757565b915061077d82610762565b600082019050919050565b600061079382610765565b9150819050919050565b7f43616c6c206661696c6564000000000000000000000000000000000000000000600082015250565b60006107d3600b83610655565b91506107de8261079d565b602082019050919050565b60006020820190508181036000830152610802816107c6565b9050919050565b7f4e487b7100000000000000000000000000000000000000000000000000000000600052603260045260246000fdfea264697066735822122030f8428cc98b70e87d6799c5b7210726b998e19e3b903542b8696cb69a521a1d64736f6c63430008080033",
  "devdoc": {
    "kind": "dev",
    "methods": {},
    "version": 1
  },
  "userdoc": {
    "kind": "user",
    "methods": {},
    "version": 1
  },
  "storageLayout": {
    "storage": [
      {
        "astId": 11,
        "contract": "contracts/FundContract.sol:FundContract",
        "label": "s_funders",
        "offset": 0,
        "slot": "0",
        "type": "t_array(t_address)dyn_storage"
      },
      {
        "astId": 15,
        "contract": "contracts/FundContract.sol:FundContract",
        "label": "s_address2Amt",
        "offset": 0,
        "slot": "1",
        "type": "t_mapping(t_address,t_uint256)"
      },
      {
        "astId": 17,
        "contract": "contracts/FundContract.sol:FundContract",
        "label": "totalAmount",
        "offset": 0,
        "slot": "2",
        "type": "t_uint256"
      }
    ],
    "types": {
      "t_address": {
        "encoding": "inplace",
        "label": "address",
        "numberOfBytes": "20"
      },
      "t_array(t_address)dyn_storage": {
        "base": "t_address",
        "encoding": "dynamic_array",
        "label": "address[]",
        "numberOfBytes": "32"
      },
      "t_mapping(t_address,t_uint256)": {
        "encoding": "mapping",
        "key": "t_address",
        "label": "mapping(address => uint256)",
        "numberOfBytes": "32",
        "value": "t_uint256"
      },
      "t_uint256": {
        "encoding": "inplace",
        "label": "uint256",
        "numberOfBytes": "32"
      }
    }
  }
}